:020000040800F2
:10000000000003205D060008592200085B2200085A
:100010005D2200085F220008612200080000000045
:10002000000000000000000000000000E170000877
:10003000632200080000000071710008016A0008D6
:10004000AD060008AD060008AD060008AD060008C4
:10005000AD060008AD06000865220008AD060008E0
:10006000AD060008AD060008AD060008AD060008A4
:10007000AD060008AD060008AD060008AD06000894
:10008000AD060008AD060008AD060008AD06000884
:10009000AD060008AD060008AD060008AD06000874
:1000A000AD060008AD060008AD060008AD06000864
:1000B000AD060008AD060008AD060008AD06000854
:1000C000AD060008AD060008AD060008AD06000844
:1000D000AD060008AD060008AD060008AD06000834
:1000E000AD060008AD060008AD060008AD06000824
:1000F000AD060008AD060008AD060008AD06000814
:10010000AD060008AD060008AD060008AD06000803
:10011000AD060008AD0600086D220008AD06000817
:10012000AD060008AD060008AD060008AD060008E3
:10013000AD060008AD060008AD060008AD060008D3
:10014000AD060008AD060008AD060008AD060008C3
:10015000AD060008AD060008AD060008AD060008B3
:10016000AD060008AD060008AD060008AD060008A3
:10017000AD060008AD060008AD060008000000004E
:10018000AD060008AD060008AD060008AD06000883
:10019000AD060008AD060008AD060008AD06000873
:0C01A00079220008AD0600088522000846
:1001B00010B5054C237833B9044B13B10448AFF3A1
:1001C00000800123237010BD800300200000000088
:1001D000843C020808B5034B1BB103490348AFF345
:1001E000008008BD0000000084030020843C020859
:1001F00001F0FF01102A2BDB10F0070F08D010F8D8
:10020000013B013A8B422DD010F0070F42B3F6D1DB
:10021000F0B441EA012141EA014122F007047FF0F4
:1002200000070023F0E80256083C85EA010586EA4B
:10023000010685FA47F5A3FA87F586FA47F6A5FA87
:1002400087F68EB9EED1F0BC01F0FF0102F0070293
:1002500032B110F8013B013A83EA010313B1F8D13E
:100260000020704701387047002D06BF354603381F
:10027000073815F0010F07D1013015F4807F02BF58
:10028000013015F4C03F0130F0BC0138704700BFA9
:100290007BB972B90029BEBF00204FF0004106E0D3
:1002A00008BF00281CBF6FF000414FF0FF3000F086
:1002B000D3B9ADF1080C6DE904CE002909DB002BA0
:1002C0001ADB00F04DF8DDF804E0DDE9022304B0AC
:1002D0007047404261EB4101002B1BDB00F040F80E
:1002E000DDF804E0DDE9022304B0404261EB4101A6
:1002F000524263EB43037047524263EB430300F007
:100300002FF8DDF804E0DDE9022304B0404261EBA0
:1003100041017047524263EB430300F021F8DDF8DE
:1003200004E0DDE9022304B0524263EB430370476B
:1003300053B94AB9002908BF00281CBF4FF0FF314C
:100340004FF0FF3000F088B9ADF1080C6DE904CE34
:1003500000F006F8DDF804E0DDE9022304B07047A0
:100360002DE9F047089D8E4604468846002B4AD169
:100370008A42174662D9B2FA82F64EB1C6F120031C
:1003800001FA06F820FA03F3B74043EA0808B4403C
:100390004FEA174E1FFA87FCB8FBFEF1230C0EFB49
:1003A000118843EA084301FB0CF29A4209D9FB1871
:1003B00001F1FF3080F0EA809A4240F2E780023992
:1003C0003B449A1AA3B2B2FBFEF00EFB102243EAA2
:1003D000024300FB0CFC9C4509D9FB1800F1FF32DD
:1003E00080F0D6809C4540F2D3803B44023840EAFE
:1003F0000140A3EB0C0300211DB1F3400022C5E92D
:100400000032BDE8F0878B4205D90DB1C5E9000186
:1004100000210846F5E7B3FA83F1002946D1734578
:1004200002D3824200F20581841A6EEB030201209E
:100430009046002DE5D0C5E90048E2E7002A00F02B
:100440009080B2FA82F6002E40F0A4808A1A030C43
:100450004FEA174E80B2BCB20121B2FBFEFC0EFB8C
:100460001C2243EA024304FB0CF29A4207D9FB1810
:100470000CF1FF3802D29A4200F2E080C4469B1A87
:10048000B3FBFEF20EFB123340EA034302FB04F41B
:100490009C4207D9FB1802F1FF3002D29C4200F2C5
:1004A000CA8002461B1B42EA0C40A5E7C1F12006A8
:1004B0008B4022FA06F71F430EFA01F420FA06F3E6
:1004C0002EFA06FE4FEA1749234300FA01F81FFAF5
:1004D00087FCBEFBF9F01C0C09FB10EE44EA0E444D
:1004E00000FB0CFEA64502FA01F209D93C1900F105
:1004F000FF3A80F09C80A64540F2998002383C4447
:10050000A4EB0E041FFA83FEB4FBF9F309FB1344BA
:100510004EEA044403FB0CFCA44508D93C1903F142
:10052000FF3E80F08280A4457FD9023B3C4443EAF1
:100530000040A4EB0C04A0FB02EC64457346E146CA
:1005400062D35FD05DB1B8EB030264EB090404FA37
:1005500006F622FA01F31E43CC40C5E900640021EF
:100560004FE7B1FBF2FC010C41EA0E4180B240EAD8
:1005700001423B4638463C46B846BE462026B1FBC3
:10058000F7F1A2EB080241EA0C4166E7014618E7E1
:1005900010462CE7C6F120022EFA02F3B740B14014
:1005A00020FA02F24FEA174E0A43B3FBFEF8BCB240
:1005B0000EFB1833110C41EA034108FB04F9B0406B
:1005C00089454FEA104380B23ED9791808F1FF3CC3
:1005D00001D289451FD8A1EB0901B1FBFEF909FB46
:1005E00004F80EFB191192B242EA0142424529D2A7
:1005F000BA1809F1FF31C4D24245C2D2A9F10201B1
:100600003A44BEE7F0459DD2BEEB02036CEB070C0B
:100610000138E14696E7A7EB09094944A8F1020C25
:10062000B1FBFEF909FB04F8DBE773467FE75046B0
:1006300066E70846FDE63B44023A33E7ACF1020CBC
:100640003B441CE749469CE7A1EB0901C446B1FBCA
:10065000FEF909FB04F8C4E7704700BFDFF834D0A7
:10066000002103E00C4B5B58435004310B480C4B0A
:1006700042189A42F6D30B4A02E0002342F8043BA8
:10068000094B9A42F9D303F053FF22F08DFD01F09C
:100690007FF8704700000320D8310B0800000020CD
:1006A0006C01002080030020E8370120FEE770473E
:1006B00008B500F0BBFDBDE8084000F03FBD00F00C
:1006C000B7BD704710B50421044621F081FB2046D8
:1006D00010BD000038B50C4B0C4C18800C4B822020
:1006E00019806368984740F6110398420AD1094D72
:1006F00023682C60822098472B688220DB6898470B
:10070000002038BD0120FCE7A60300205400002093
:10071000A4030020A80300204FF4A071F020FFF7ED
:10072000D9BF0000F7B5394D2B6804461B698220FC
:100730009847208000284ED02B680DF106025B6997
:1007400001A982209847324B1B78002B4BD0BDF873
:10075000062040F674639A423FD9ADF80630BDF8E2
:1007600006209B1A9BB20A2B42D90B22B3FBF2F351
:10077000284A1288934201D9013A93B2BDF8042065
:10078000254840F6B8318A4234D8C2F571620E323B
:10079000016892B20F25B2FBF5F2204D2D88AA42D6
:1007A00084BF05F1FF35AAB28A4215468EB22AD916
:1007B000921B91B21A4E3768BB42BAB28CBF9A1ADA
:1007C000D21A92B211440529C4BF05603360036890
:1007D00063803368A38003B0F0BDB32A9CBFB4220A
:1007E000ADF80620BBE7BDF80630A3F5B473B9E752
:1007F0000023C3E7C2F56D62083292B20E2A016887
:10080000C8D800252A46891A89B2D3E7A803002050
:10081000301A0020A4030020A0030020A60300201B
:100820009C03002037B568460D461446FFF77AFF53
:10083000BDF8000030B1BDF802302B60BDF80430C7
:100840002360012003B030BD032821D8DFE800F089
:10085000020B12190F4B1A68B2FA82F252090421E4
:100860000D4804F0F9B80B4B5A68B2FA82F25209FB
:100870000821F5E7074B9A68B2FA82F25209102173
:10088000EEE7044BDA68B2FA82F252092021E7E778
:10089000704700BFAC03002000100240032821D89D
:1008A000DFE800F0020B12190F4B1A68003A18BF6C
:1008B000012204210D4804F0CFB80B4B5A68003ACE
:1008C00018BF01220821F5E7074B9A68003A18BFC4
:1008D00001221021EEE7044BDA68003A18BF01222A
:1008E0002021E7E7704700BFAC0300200010024062
:1008F00003280DD8DFE800F00206080A04210548A5
:1009000004F0AFB80821FAE71021F8E72021F6E754
:10091000704700BF0010024008B5032811D8DFE877
:1009200000F0020A0C0E0421074804F08FF8431E61
:100930005842584108BD0821F6E71021F4E720216C
:10094000F2E70020F3E700BF0010024070B5084D49
:1009500000240126E0B2FFF7DFFF18B12B68012B5E
:1009600018BF2E600134052C05F10405F2D170BDCD
:10097000AC030020012380F8781080F879307047AC
:100980007047002070470000034B4164003918BFD6
:1009900001211970704700BFA72A0120704700206D
:1009A0007047836B0BB10846184770474FF6FF70CE
:1009B0007047406803689B691847704770477047E5
:1009C0007047704710B5044600F048FD236803499E
:1009D000D3F890302046BDE810401847000000D002
:1009E00008B503680446D3F8843098472368204646
:1009F000DB6F984700F0ECF8236820465B6F984760
:100A0000292001F049F900F0E3F8236820465B6FE4
:100A10009847F8E710B5044609F05AF923682046CC
:100A2000D3F8BC30BDE81040184700F0FBBC00F024
:100A3000FFBC00F031BD00F0D1BC00F041BD00F0C2
:100A400049BD00F0D5BC08F071BB10B58421044647
:100A500021F0BEF9204610BD10B590F8341090F882
:100A600078400C4B8C421A7809D03AB90A4A0B49A3
:100A70001488088810800C8001221A7010BD002A8A
:100A8000FCD0054A05491488088810800C80002293
:100A9000F3E700BFA02A01209C2A01209E2A012002
:100AA00070B50D46194635B9094B0A4A0A4840F255
:100AB000FF2122F0C9F8C0E90F52084B003A18BFD5
:100AC00001221A700368BDE87040D3F890301847CF
:100AD000F43C02082C3D02087A3D0208A62A0120B7
:100AE00008B5094B1B888B4203D8084B1B889342DF
:100AF00005D9074B074A0848A32122F0A5F8074B60
:100B00001980074B1A8008BD9C2A01209E2A0120CB
:100B1000BF3D0208223E02087A3D0208A22A0120B7
:100B2000A42A0120034690F87A0018B15868036897
:100B30001B68184770470000012108B500220846CD
:100B400005F0E8FF0A4B186028B90A4B0A4A282129
:100B50000A4822F079F800220421012006F079F8F1
:100B6000074B186018B9074B034A2C21F0E708BD62
:100B7000C0030020653E0208AE3E0208DD3E0208CA
:100B8000BC0300202B3F0208024B4FF0FF311868D6
:100B900006F00AB8C0030020014B186806F030B810
:100BA000C0030020024B0021186805F0FDBF00BF04
:100BB000C0030020FFF7F0BF03480449006800238A
:100BC0001A4606F081B800BFBC03002004000020D4
:100BD00013B5084C00231A4601A9206806F0A5F8B1
:100BE00020684FF0FF33002201A906F09EF802B002
:100BF00010BD00BFBC03002003685B6C18470120D8
:100C0000704703689B6A1847FEE740F2EF30704771
:100C1000054B0360054B4FF08062C3F88820BFF39B
:100C20004F8FBFF36F8F7047444A020800E100E026
:100C300010B504464FF45A61FFF7EAFF204621F051
:100C4000C7F8204610BD000082B0002301930E4B70
:100C50001A6B42F400021A631A6B02F4000201924A
:100C6000019A1A6942F400021A611A6922F4000218
:100C70001A61064B064A1A61064A5A61064B4FF042
:100C800080629A6002B0704700380240C41B0020A6
:100C9000E90E0008090C000800E100E008B50A2888
:100CA00009D8DFE800F006100E0808080810101038
:100CB0001000022008BD054B054A0648902121F08E
:100CC000C3FF0020F6E70120F4E700BF6D3F0208F4
:100CD000883F0208D33F020838B50C46887FFFF7EB
:100CE000DDFFA58AE28A164B2169586342EA054274
:100CF0005A64628BD963521B1A642568082D0ED181
:100D00009A611A615862207F0E4A42EA0062DA61F3
:100D1000E2681A620C4A5961D9601A6038BD002233
:100D2000D8611A61E1680A0A480902F4784200F4BD
:100D3000FC600243C1F3C4010A439A63034AECE72F
:100D400000B002400900010001230200012303005A
:100D500008B50B280BD8DFE800F00612100A0A0AC3
:100D60000A0808080808022008BD0520FCE7054B12
:100D7000054A06486F2121F067FF0020F4E70120B3
:100D8000F2E700BF6D3F02081F400208D33F020890
:100D90002DE9F04191F81D800C464046FFF7D8FF41
:100DA000A77F05463846FFF7D3FF06463846FFF7CC
:100DB00075FFA18A628B444B521A1A649A61228B86
:100DC000521A1A61E28A586342EA01425A6421695E
:100DD0006268D963DA602068802828D0227F0FD823
:100DE000202867D0402865D004281AD0364B45EA21
:100DF000026545F40035B845DD6161D0334A44E011
:100E0000B0F5807F04D0B0F5007FEFD1304800E02E
:100E1000304840EA0262DA61E2681A625E62596151
:100E200032E045EA026242F40032DA61F6E7A06895
:100E3000021DDA62227F45EA026545F40035DD6174
:100E40005E625961017841B1012921D0224B234AC8
:100E500023484FF48D7121F0F7FEDA69418822F4BE
:100E60007F42013922F0100242EA0122DA610121B7
:100E7000154BDA6942F02002DA61DA699206FCD495
:100E800010229A600029B9D0164A1A60BDE8F08194
:100E9000B2F1FF01DA69408822F47F4200F1FF30AD
:100EA00022F0100242EA002242F0100218BF012193
:100EB000DA61DDE745EA0262034B42F40032B4E74F
:100EC00042F20132E1E700BF00B00240012301001D
:100ED000090002000A00020069400208834002087B
:100EE000D33F020801230200024B1B6858680368C5
:100EF0005B691847A82A012070B5044625460A4BAD
:100F00000C30002660602672667245F8203B602235
:100F1000294609F033F804F55A63EE6024359D4202
:100F2000FBD1204670BD00BF444A0208034B1A683B
:100F3000D207FCD423229A60704700BF00B0024061
:100F40007047000030B50F4C2568ED07FCD4232511
:100F50000904A56041F001010225FF2B656361646E
:100F6000E0630AD00849656241EA0363E361074B25
:100F700022626061E060236030BDE561039BA36392
:100F8000034BF8E700B00240090001000100020035
:100F90000100030030B50E4C2568ED07FCD4232575
:100FA0001204A56042F001020225FF2B6563626412
:100FB000E063E16008D01B0643F00213E361054BD8
:100FC00065626061236030BD034BE3610123F9E793
:100FD00000B0024001000200020002FF30B50B4CDD
:100FE0002568ED07FCD4232512041B06A56043F4F5
:100FF0000033022542F0010265636264E063E16050
:10100000E361034B65626061236030BD00B0024064
:1010100001000200012070470C2070470C2303FBE5
:101020000100083070470C2303FB010008307047B3
:101030000120704740F21C50704740F21C5303FBE4
:1010400001000830704740F21C5303FB01000830D8
:101050007047012070471020704700EB01100830E6
:10106000704700EB011008307047084601F0B4BB30
:1010700010B5034B0360044607F0ADFD204610BDDC
:10108000FC4A020810B50446FFF7F2FF204614217F
:1010900020F09EFE204610BD10B5034B03600446B1
:1010A00007F099FD204610BDC84A020810B5044655
:1010B000FFF7F2FF204640F2245120F089FE20463F
:1010C00010BD000010B5034B0360044607F083FD1C
:1010D000204610BD944A020810B50446FFF7F2FFFF
:1010E0002046182120F074FE204610BD10B5084B94
:1010F0000360044600F5AA60FFF7BAFF04F12C0074
:10110000FFF7CAFF04F11400FFF7DCFF204610BD13
:10111000304B020808B50248FFF7E8FF08BD00BFE2
:101120009C12002010B50446FFF7E0FF20464FF464
:10113000D96120F04DFE204610BD00002DE9F3419D
:1011400001F01AF9054601F01BF900240146234677
:1011500028462246009411F089FD274B274A1A6041
:10116000204602F037FB264D264B274A27489A6037
:1011700011F0E4FC2B68BFF35B8FDB0735D4284606
:1011800020F028FE88B3224C224B236004F26C56D8
:1011900004F1140004F12C0804F5AA676060C4F897
:1011A0000880E760266107F017FD1B4B636140462E
:1011B00007F012FD194BE362384607F00DFD184B9E
:1011C000C4F8503504F2645002F0B8FE224604F22E
:1011D0006451304602F07CFB304601F0FDFA1148C4
:1011E00021F050FD284620F001FE0F4802B0BDE876
:1011F000F041FFF7E7BB00BF0C2B012048040020A3
:1012000098120020680400204C04002008000020F0
:101210009C120020304B0208944A0208C84A020877
:10122000FC4A020815110008C403002070470000A2
:101230000148FFF7D5BB00BFC403002070B5264EA0
:10124000264C274D274B23603046FFF755FE284696
:1012500016F012FE24480FF0F7F9244B2448DC6006
:1012600000224FF48071C3E9121222491A86C3E9A1
:101270001A12214983F85820C3E91E011F49C3F8F7
:1012800080101F491F480B60F021C3E90422C3E905
:101290000622C3E90822C3E90A22C3E90E22C3E9F0
:1012A0001022C3E91422C3E917225A6683F870207A
:1012B0005A67C3E9016501801348018013484FF460
:1012C000A07101801248018012490A70012283F83E
:1012D0003420114A1A6070BDF404002094120020DA
:1012E00068040020E43C02084C040020C4030020F1
:1012F0000000010101000001000450001A00140068
:10130000A82A01209C2A0120A22A01209E2A01202D
:10131000A42A0120A02A0120584902080148FFF709
:1013200077BC00BFF4040020002070478180704724
:10133000C180704701817047418170477047704795
:1013400070477047704710B4C4880368121B8488C4
:101350005B6D091B12B25DF8044B09B218474FF6DA
:10136000FF7383814FF0FF3303621368C361106022
:101370007047002070478B8883800120704770473A
:1013800080F82610704790F82600704710B50022AC
:10139000B1F90840B1F90A10028042808480C1800E
:1013A00010BD0022028042808280C2807047017797
:1013B000704780ED080A704780F82410704780F865
:1013C0002510704701207047983070478C30704767
:1013D000843070477047704770470000034B90227D
:1013E00083F85A2383F85823704700BF00E100E0D8
:1013F000094A0A49D3680A48C3F30A03013B9BB26E
:101400000B801169C1F30A01013901801364536B28
:1014100043F00103536370470068014066190020E0
:1014200064190020014BD3F8AC00704700680140FC
:10143000024B0122C3F8AC105A62704700680140A9
:1014400010B52C21044620F0C3FC204610BD10B579
:10145000BC21044620F0BCFC204610BD70B50446FB
:1014600007F0B9FE23689D6E0DF086FE014620460A
:10147000A8472368054AD3F88C502046AC46002381
:10148000BDE87040A2F51631604700BF00B004D03F
:1014900007F088BE07F092BE07F04EBE07F0BDBF52
:1014A00090F8252012B103685B691847704790F8DF
:1014B00025201AB190F8242002B11860704700006E
:1014C000034B4FF080629A604FF080729A607047D1
:1014D00000E100E0084B4FF08062C3F88820BFF3C2
:1014E0004F8FBFF36F8F4FF08072C3F88820BFF328
:1014F0004F8FBFF36F8F704700E100E070B500239E
:10150000124E8380124B0360336893F858200546CF
:101510000AB1D86C00B998680368DB6A98473368E9
:10152000B0FA80F4D86C640930B10368DB6A98477C
:10153000002808BF44F001042CB9064B064A0748AE
:101540002C2121F081FB284670BD00BFA82A012074
:10155000444B0208C14002081F41020858410208DA
:1015600070B5254E3568BFF35B8F15F0010540D18E
:10157000304620F02FFC00283BD0204C204B25612A
:1015800004F13400C4E90035C4E90255E584A562DC
:10159000A5850FF03EFB04F158000AF0A5F9194BA0
:1015A000A3652046184B40F8843BFFF7A7FF174B75
:1015B000C4F884302433C4F88C304FF4C803C4E931
:1015C00028350023C4F8AC30C4F8B030C4F8B430C7
:1015D000C4F8B8300E480F4BC4F89050C4F89C5073
:1015E000C4F8A850C4F8983021F04CFB304620F0E5
:1015F000FDFB024870BD00BF681900206C19002077
:1016000048520208644B0208DC4B0208FC510208F5
:10161000D9130008DC51020838B5184C23685BB3B5
:10162000174B184A1B6C11888B4216D1164B198820
:1016300004F00AF8236893F86A200025013283F841
:101640006A2083F87C50FFF7B7FA206808F040FB67
:101650002846BDE83840FFF7F7B803F0F5FF2468E7
:10166000236820461B6A9847012384F87C300020B9
:10167000BDE83840FFF712B938BD00BFA82A0120E5
:1016800000680140661900206419002007B5064B68
:10169000ADF806001B68054801220DF1060104F0B3
:1016A00073FD03B05DF804FB0C000020701A0020ED
:1016B000F7B501230D4E0E4F8DF80730002501219F
:1016C000304603F0C3F9012804460AD14DB9386801
:1016D0002B462A460DF1070105F0F6FA322005F0F7
:1016E0000DFA142005F00AFA2546E8E7000002404A
:1016F0002C1A002030B595B0102200210AA821F044
:10170000AAFC1422002103A821F0A5FC00241E4BF2
:1017100001941A6C42F080521A641B6C03F08053DF
:101720000193019B194B02941A6842F440421A60DB
:101730001B6803F4404302930122029B4FF4803361
:10174000CDE9082302254FF480030821CDE90E538B
:101750004FF4B473CDE9101308A804231393129522
:1017600003F0CAFF03F08EFF0F23CDE903354FF4DA
:10177000A0504FF48053CDE90603052103A805943A
:1017800004F096F915B030BD0038024000700040FA
:1017900080B59AB002F0DAFEFFF7ACFF1422002108
:1017A0000DA821F058FC0024C84B00941A6BC848BF
:1017B000C84D42F010021A631A6B02F01002009238
:1017C000009A01941A6B42F020021A631A6B02F01D
:1017D00020020192019A02941A6B42F080021A636D
:1017E0001A6B02F080020292029A03941A6B42F082
:1017F00004021A631A6B02F004020392039A04941F
:101800001A6B42F001021A631A6B02F00102049291
:10181000049A05941A6B42F002021A631A6B02F0E2
:1018200002020592059A06941A6B42F040021A636E
:101830001A6B02F040020692069A07941A6B42F065
:1018400008021A631B6B03F00803224607933C212E
:10185000079B03F001F9A0480122022103F0FCF8E4
:1018600022469D48042103F0F7F822469B484FF496
:10187000405103F0F1F801263C23CDE90D369448A0
:101880000F9403230DA90227109302F0FBFF924847
:101890000DA9CDE90D76CDE90F4402F0F3FF042345
:1018A0008D480DA9CDE90D36CDE90F4702F0EAFFCD
:1018B0008B480F940DA9CDE90D6402F0E3FF0DA94B
:1018C0004FF440538548CDE90D36CDE90F4702F07E
:1018D000D9FF8448844B036002F0CAFEDFF82CC2B3
:1018E000824B2C62C5E900C328464FF48043C5E90A
:1018F0000434C5E90244C5E9064403F0C9FA1021DD
:10190000284603F00DFD2146284603F028FD784DBA
:10191000DFF8FCE1AC624FF48273C5E900E34FF4F9
:1019200000781823C5E9068328460A23C5E902443E
:10193000C5E90444C5E90844EB6204F0C9FB8F2300
:101940002246394664488DF824308DF8344003F03F
:1019500083F832464FF47A7309A9284604F014FC40
:101960004FF47A7332460DA9284604F0B9FD324689
:10197000394659485F4D03F06FF89DF83430D32B4A
:1019800004BF5D4B1E705D4B0126C5E90036102279
:1019900040230024C5E904234FF4C073C5E906348D
:1019A0004FF40063C5E908344FF4005302274FF0A9
:1019B0000409AB624FF0030A07230DA92846CDE9BD
:1019C0000D73CDE90F934FF00808C5E90249CDE941
:1019D00011A7139704F060FA4FF6FF7209A9284681
:1019E000CDE90A86089409960C9404F075FA3046FD
:1019F00002F0D8FD4FF6FF7209A92846CDE9097813
:101A0000CDE90B6404F068FA4FF6FF7209A9284685
:101A1000CDE909A8CDE90B9404F05EFA4FF40C73FC
:101A20000893089B0C934FF6FF7209A92846CDE94D
:101A300009980B9604F050FA40F26A51284604F0D7
:101A400069FA34220DEB0200214621F004FB2C4DF3
:101A50002C4B2C61C5E900340923C5E905361D234B
:101A6000C5E9073A40F20D1140F24313C5E90913E5
:101A700040F2171040F24713C5E90B032846C5E9A9
:101A80000244AC8685F8364003F0FCFCFF21F022CE
:101A9000CDE912144FF005084FF480614FF4A073A4
:101AA000CDE90E24CDE91418CDE916420DA9224640
:101AB0002846CDE91037144D18930D94ADF86440C5
:101AC0008DF8664003F092FD24E000BF003802402C
:101AD00000100240701B002000080240000C024071
:101AE00000000240041C002000300240A0860100DB
:101AF000701A00203C1A0020301A0020400100A07B
:101B0000C81A002000680140281A0020005C00402C
:101B1000005001401A4B2B601B6898472B68194DE9
:101B2000DB689847184B2846C5E90034C5E90274BC
:101B3000C5E90A47C5E90C4402F0AAFD314628462A
:101B400002F05CFEFEF7B4FDFEF7B1FD04F066FFA7
:101B500022463146404605F07CF80C4B0C4A186092
:101B600021460C4804F086FF0B4B0C4A18602146B6
:101B70000B4804F07FFF0B4B186004F061FFFEE799
:101B80001C000020C41B002000B002402C1A0020C2
:101B9000444C0208B1160008381A0020204C0208F4
:101BA000BF060008341A0020704770477FB5094B04
:101BB0008DF817201B6802930DF117020123009284
:101BC00001930A460146044803F00AFA07B05DF89B
:101BD00004FB00BF10000020701B00207FB5002315
:101BE0008DF81730084B1B6802930A4601230DF14C
:101BF0001701009101930146044803F081FA9DF812
:101C0000170007B05DF804FB10000020701B0020D7
:101C10001FB5084C24680092CDE901340A4601231F
:101C20000146054803F06CFA003818BF012004B0E3
:101C300010BD00BF10000020701B002002F0B2BCDD
:101C400010B5064C00222046042102F005FF204674
:101C50000122BDE81040042102F0FEBE000802404F
:101C600038B50B4D044601220A484FF4005102F0EA
:101C7000F3FE00220421284602F0EEFE2046FFF784
:101C800005FD28460122BDE83840042102F0E4BEEB
:101C900000080240000C024038B50B4D04460022FB
:101CA0000A484FF4005102F0D7FE002204212846D2
:101CB00002F0D2FE2046FFF7E9FC28460122BDE8EB
:101CC0003840042102F0C8BE00080240000C024067
:101CD000F7B5144E144F05460C4630460022042139
:101CE00002F0BAFE00224FF40051384602F0B4FE72
:101CF0002846FFF7CBFC0D4B0D481B68224601A977
:101D000004F0EEFB384601224FF40051019C02F032
:101D1000A3FE30460122042102F09EFE204603B0BD
:101D2000F0BD00BF00080240000C02400C00002083
:101D3000701A002002F036BC0268034B9A4201D1AF
:101D400002F01EBC704700BF00100040704700004A
:101D500082B00E4B00220092596C41F480415964CC
:101D6000596C01F48041009100990192196C41F085
:101D7000805119641B6C03F080530193019B0F2168
:101D80006FF0010002B002F033BC00BF0038024027
:101D90000268094B9A4282B00BD100230193074B92
:101DA0001A6B42F480521A631B6B03F48053019345
:101DB000019B02B0704700BF003002400038024073
:101DC00007B50F4B02689A4216D10022A3F5F043E3
:101DD0000192196B41F4000119631B6B03F40003BA
:101DE000019305215A20019B02F002FC5A2003B006
:101DF0005DF804EB02F02EBC03B05DF804FB00BFFD
:101E000000B002402DE9F043044689B014220021BD
:101E100003A821F020F92268244B9A4243D1244C94
:101E2000244800250095236B43F004032363236BB0
:101E300003F004030093009B0195236B43F001031F
:101E40002363236B03F001030193019B4FF01209FD
:101E50004FF400734FF001080327042603A9CDE9CE
:101E60000339CDE90587079602F00CFD4FF4807326
:101E70001148079603A9CDE90339CDE9058702F09A
:101E800001FD0295236C43F400032364236C03F4E7
:101E900000030293029B236A43F400032362236A34
:101EA00023F40003236209B0BDE8F083005C004026
:101EB000003802400008024000000240F0B599B02E
:101EC00004461422002107A821F0C5F830220DEBAA
:101ED0000200002121F0BFF822685E4B9A4240F0D8
:101EE000B78008230C93C0231093042312930CA8EB
:101EF0004FF40033159303F0A3FE08B1FFF726FF5C
:101F0000554B5648002400945A6C42F080625A6443
:101F10005A6C02F080620092009A01941A6B42F0AF
:101F200020021A631A6B02F020020192019A0294B5
:101F30001A6B42F001021A631A6B02F0010202925C
:101F4000029A03941A6B42F002021A631A6B02F0AF
:101F500002020392039A04941A6B42F040021A633D
:101F60001A6B02F040020492049A05941A6B42F034
:101F700004021A631A6B02F004020592059A069491
:101F80001A6B42F008021A631B6B03F008030693F6
:101F900002250E26069B0B964FF4806307A9CDE918
:101FA0000735CDE9094502F06DFC41F658032C4890
:101FB0000B9607A9CDE907350927CDE9094502F0B8
:101FC00061FC032327480B9707A9CDE90735CDE925
:101FD000094502F057FC4FF4706322480B9607A99D
:101FE000CDE90735CDE9094502F04CFC4FF40C630F
:101FF0001D480B9607A9CDE90735CDE9094502F043
:1020000041FCC02319480B9607A9CDE90735CDE956
:10201000094502F037FC082315480B9607A9CDE9BE
:102020000735CDE9094502F02DFC4FF4A0530E48C9
:102030000B9707A9CDE90735CDE9094502F022FC48
:1020400058202246052102F0D3FA582002F002FB64
:1020500019B0F0BD00680140003802400014024091
:102060000000024000040240001802400008024044
:10207000000C024010B5044688B01422002103A8C9
:1020800020F0E9FF2268144B9A4223D103F56843FC
:10209000002101915A6C114842F480125A645A6C22
:1020A00002F480120192019A02911A6B42F020020E
:1020B0001A631B6B03F020030293029B4FF46072C0
:1020C00002230321CDE903230523CDE9061303A948
:1020D00002F0D8FB08B010BD0050014000140240CF
:1020E0002DE9F04186B0002303932B4B1C68002C94
:1020F0004FD14FF00108C3F80080284B00949A6B31
:10210000274842EA08029A639B6B03EA080300939C
:10211000022703260C25009B01A94FF63F03CDE9BA
:102120000137CDE9046502F0ADFB1E48059501A914
:10213000CDE90187CDE9034602F0A4FB48F2331351
:102140001948059501A9CDE90137CDE9034602F00B
:1021500099FB4FF683731548059501A9CDE9013721
:10216000CDE9034602F08EFB4CF20373104805954F
:1021700001A9CDE90137CDE9034602F083FB6023D5
:102180000C48059501A9CDE90137CDE9034602F0D8
:1021900079FB06B0BDE8F0810C1C0020003802403D
:1021A00000140240000802400018024000100240E3
:1021B000000C02400004024070B588B00023029376
:1021C000204B1A6C42F010021A641B6C03F01003CF
:1021D0000293054601A903A8029B03F013FD069B89
:1021E0004BBB03F0FFFC184E184B336040F2E73353
:1021F000F360174BB0FBF3F3013B736030460023F1
:102200003361B360B36104F035FB044680B93046F6
:1022100004F00AFA044658B9362002F01BFA0F2DD2
:102220000DD822462946362002F0E2F9094B1D60FE
:10223000204608B070BD03F0D5FC4000D3E7012470
:10224000F6E700BF00380240101C002000100040DC
:1022500040420F00840000207047FEE7FEE7FEE7E3
:10226000FEE77047012002F007BC0000014804F0BF
:1022700019BA00BF101C0020014803F05AB900BF72
:10228000C81A0020014802F02FBA00BFC41B00206A
:102290000120704708B520F081FF162303604FF03E
:1022A000FF3008BD08B520F079FF16230360FEE774
:1022B00070B50D4614460E46731B9C4201DC204649
:1022C00070BDAFF3008006F8010BF5E770B50D4661
:1022D00014460E46731B9C4201DC204670BD16F866
:1022E000010BAFF30080F5E74FF0FF3070474FF47C
:1022F00000534B600020704701207047002070475A
:102300000A4A116808B5034609B9094911601068FD
:10231000694603448B4206D920F040FF0C2303603A
:102320004FF0FF3008BD1360FCE700BF581C0020D1
:10233000E8370120704708B5052914D8DFE801F017
:1023400003070B0F0B0F01F091FA006808BD01F0B5
:102350008DFA4068FAE701F089FA8068F6E701F043
:1023600085FAC068F2E70020F0E710B504210446C2
:102370001FF02EFD204610BD004870477C4C02081F
:102380000820704713B5002451B1036801948DF8FB
:10239000034001AA9C680DF10303A04702B010BDE1
:1023A0000846FBE7C0897047008A7047C0887047BD
:1023B00080887047807A00F07F007047807AC0097B
:1023C00070470020704700009FED010A704700BF72
:1023D00000000000704710B5082104461FF0F8FC0B
:1023E000204610BD7047704700F59873086849682B
:1023F00003C370477047704741607047704770472C
:10240000064BC0F84C310023C0F8503100F5A273E0
:10241000C0F84801C0F84031704700BF0D260008E1
:10242000012303727047704710B4C26841685410AA
:10243000034601EB6200D20748BF0A599B685DF86A
:10244000044B48BFD35818470346406830B19A68D8
:102450001AB9D86800F0010070470120704710B524
:102460000C2104461FF0B4FC204610BD10B510210D
:1024700004461FF0ADFC204610BD10B54FF4AE7100
:1024800004461FF0A5FC204610BD10B50CF074FEEC
:102490000368BDE81040DB6B184710B50446D0F860
:1024A000400158B10368DB68984738B1D4F840015F
:1024B00003689B6898470023C4F8403110BD0000B2
:1024C0002DE9F14FD0E9556A0746B06803681B6AE9
:1024D000984740F21B53984205D8444B444AA321E5
:1024E000444820F0B1FB706803681B6A98470F28C6
:1024F00003D8414B3E4AA421F2E7F06803681B6A07
:1025000098470B2803D83D4B394AA521E8E70CF042
:1025100033FEDFF8F09004300CF053FED9F80000E1
:1025200010B10368DB689847D9F8000010B1036860
:102530001B689847DFF8D080D8F8000010B1036816
:102540005B699847D7F83C0110B103685B6898470E
:10255000D8F8000010B103681B689847D7F83C0111
:1025600010B103689B689847F068036800215B6AB4
:1025700098474FF0000B224BC0F804B0044680F897
:1025800008B00360B068036859465B6A984705461F
:1025900001F0DAF97068036859465B6A9847294682
:1025A000064601F0ADF9331DC7F83C61C9F800409B
:1025B000C8F80050CAF800302B68C6F808A02846B2
:1025C000DB68EE639847336830461B6898472146BE
:1025D00028460EF0A3FF236820461B69984723680E
:1025E0005B69204601B0BDE8F04F1847CF410208B3
:1025F0005D420208354302087C4302081F4402087A
:10260000A04D0208F02A0120EC2A01202DE9F14F0B
:10261000D0E9556A0746B06803681B6A9847B0F569
:10262000C87F05D2444B454AA321454820F00CFB06
:10263000706803681B6A98470F2803D8414B3F4ACC
:10264000A421F2E7F06803681B6A98470B2803D8B7
:102650003D4B3A4AA521E8E70CF08EFDDFF8F090FB
:1026600004300CF0AEFDD9F8000010B10368DB684F
:102670009847D9F8000010B103681B689847DFF845
:10268000D480D8F8000010B103685B699847D7F888
:102690003C0110B103685B689847D8F8000010B19E
:1026A00003681B689847D7F83C0110B103689B6822
:1026B0009847F068036800215B6A98474FF0000B69
:1026C000224BC0F804B0044680F808B00360B0683C
:1026D000036859465B6A9847054601F067FC7068D5
:1026E000036859465B6A98472946064601F03AFC5A
:1026F000331DC7F83C61C9F80040C8F80050CAF85B
:1027000000302B68C6F808A02846DB68EE639847BF
:10271000336830461B689847214628460EF0FEFE77
:10272000236820461B69984723685B69204601B0EF
:10273000BDE8F04F184700BFCF410208C24402086D
:10274000354302087C4302081F440208A04D0208DA
:10275000F02A0120EC2A0120044B1B6893F8582032
:102760000AB1D86C00B99868704700BFA82A012048
:10277000F8B5174604460E460CF0C0FD124B1C601F
:10278000124B2360124B0025C4E95135114BC4E9AB
:1027900053551868036829469B68C4E94F55C4E936
:1027A00055769847284601F015F8FFF7D5FF17F042
:1027B0000CFAFFF7D1FF17F083FAFFF7CDFF17F000
:1027C0008BFA2046F8BD00BFFC2A01204C4D0208C0
:1027D000344D0208A82A0120064BC0F84C310023D2
:1027E000C0F8503100F5A273C0F84801C0F840317C
:1027F000704700BF0D260008064BC0F84C3100237F
:10280000C0F8503100F5A273C0F84801C0F840315B
:10281000704700BFC1240008704770477047704779
:10282000704730B5036885B06D460181D3F88430B8
:10283000014604462846984795E807003C3484E85A
:10284000070005B030BD30B5036885B06D464181E5
:10285000D3F88430014604462846984795E8070097
:102860003C3484E8070005B030BD0022028042807D
:102870008280C280704780F83610704770B5036858
:1028800004461B6B154698472368294620465B6E15
:10289000BDE87040184700207047806C7047704753
:1028A00070477047704730B4C2684468551003469B
:1028B00004EB6200D20748BF62599B6830BC48BF36
:1028C000D35818470346406830B19A681AB9D86897
:1028D00000F0010070470120704710B54C210446FC
:1028E0001FF076FA204610BD10B5102104461FF0E7
:1028F0006FFA204610BD10B540F2EC4104461FF0BF
:1029000067FA204610BD08B5FEF7CAFD08BD0000F5
:10291000036870B55E6B124B1B6804468DB22BB911
:10292000104B114A6C21114820F08EF91049828D0C
:102930000988914203D80F4B0B4A6D21F3E713F836
:1029400012200D4B1B6853F8220003681B6B98473D
:10295000291A3346204609B2BDE87040184700BF27
:10296000002B01209C450208DE450208194602089A
:10297000042B012060460208082B012000F5787026
:10298000884208B505D10CF0F7FBBDE80840FFF719
:1029900023BF08BD00224FF0FF31C0E90021826053
:1029A000704770B5036804461B6B1546984723684B
:1029B000294620465B6BBDE87040184770B5044659
:1029C0001D46BDF91060FFF7ECFF2368294620463D
:1029D0009B6B9847236831462046DB6BBDE870400F
:1029E000184700004FF4807100228184054901607E
:1029F000C0E90122C0E90322C0E90522C0E907229B
:102A0000826270471C5102080022C0E90122C0E91D
:102A10000322C0E90522C0E907224FF480728284B4
:102A2000014A0260704700BFC44D020810B526225B
:102A30000446002120F00FFB2046FFF7E5FF044B82
:102A40002360FF2384F826300023A362204610BDB4
:102A50001054020838B5262204460D46002120F005
:102A6000FAFA2046FFF7D0FF064B23602B88E38459
:102A7000FF23204684F82830294609F07EFE2046B0
:102A800038BD00BF7854020810B526220446002144
:102A900020F0E1FA2046FFF7B7FF0A4B23600A4B0C
:102AA000A3624FF6FF73A3854FF47F020023C4E9AE
:102AB0000C3223874FF0FF32C4E91023E363204632
:102AC00010BD00BF80530208244D0208F8B5194B11
:102AD000018F1B888B4206462AD9174B1B682BB9DE
:102AE000164B174A17486C2120F0AEF813F8112046
:102AF000154B1B6853F82250144B186800F0A6FEC3
:102B00002B6807469B6B284698472B6804469B6CAE
:102B10003946284698472B6814FB00F45B6A39460F
:102B200028469847A4B223181BB2A6F84630F8BD31
:102B30000023FAE7042B0120002B01209C4502080A
:102B4000DE45020819460208082B01200C2B012043
:102B50002DE9F04F04469DB0A24600250EF032FB51
:102B6000D94BE5634AF8403B04F16C0950464FF6F7
:102B7000FF76FFF75BFF04F198081AA9484604F1B5
:102B8000C407ADF8686008F017FF1AA94046ADF811
:102B9000686008F011FF3846FFF724FF04F1F003E6
:102BA0001AA918460A93ADF86860FFF753FF04F5B9
:102BB0008E731AA918460B93ADF86860FFF74AFFA9
:102BC00004F5A47318461193FFF730FF04F5BA73A8
:102BD00018460493FFF706FF04F5D0731AA91846A8
:102BE0000C93ADF86860FFF735FF04F5E6731AA99A
:102BF00018460D93ADF86860FFF72CFF04F5FC73E1
:102C000004F5097B18461293FFF710FF5846FFF7AB
:102C1000E9FE04F514731AA918460E93ADF868601E
:102C2000FFF718FF04F51F731AA918460F93ADF8A4
:102C30006860FFF70FFF04F52A7318461393FFF738
:102C4000F5FE04F5357318460393FFF7CBFE04F544
:102C5000407318460993FFF717FF9C4BC4F80033E5
:102C600004F553731846C4F848530593FFF70CFF57
:102C7000964BC4F84C3304F566731846C4F8945365
:102C80000693FFF701FF04F578731846079309F0E0
:102C9000ABFE04F585631AA918460893ADF8686081
:102CA00008F08AFE04F2544318461093FFF7ECFE36
:102CB000864BC4F85434864BC4F8DC34854BC4F8D6
:102CC000E434F0232A465046C4F89C54C4F8E04447
:102CD000C4F8E854294600934FF4A073FFF76EFE42
:102CE000261D4FF07F435146A366304605F088FF0E
:102CF0004FF0040348461AA9ADF8683009F03DFDCD
:102D0000F0232A464846009329464FF4A073FFF764
:102D100055FE4846294608F00AFE4946304605F069
:102D20006FFF4FF0030340461AA9ADF8683009F071
:102D300024FDF0232A464046009329464FF4A07311
:102D4000FFF73CFE4046294608F0F1FD414630467B
:102D50004FF4AA7805F054FF46233846CDF800809A
:102D60006FF022024FF4A571FFF728FEBB220A98EC
:102D70002946FFF716FE4FF006090A98ADF868904D
:102D80001AA909F0FAFC38460A9905F039FF2A46D3
:102D90000B982946FFF705FE4FF007030B98ADF897
:102DA00068301AA909F0E9FC4FF0500A38460B992F
:102DB00005F026FF6E221198CDF800A001232221F4
:102DC000FFF7FCFD4FF0FF33C4F87031384611991E
:102DD00084F86D5105F014FF3946304605F010FFB8
:102DE00046230498CDF800806FF022024FF4A571BD
:102DF000FFF7E4FDBB220C982946FFF7D2FD0C98A3
:102E0000ADF868901AA909F0B8FC0C99049805F07F
:102E1000F7FE2A460D982946FFF7C3FD4FF0070736
:102E20000D98ADF868701AA909F0A7FC0D990498DF
:102E300005F0E6FE6E221298CDF800A001232221B3
:102E4000FFF7BCFD4FF0FF33C4F82032129904980D
:102E500084F81D5205F0D4FE0499304605F0D0FEEA
:102E60004623CDF800806FF022024FF4A57158463A
:102E7000FFF7A4FDBE220E982946FFF792FD0E989B
:102E8000ADF868901AA909F078FC0E99584605F03B
:102E9000B7FE2A460F982946FFF783FD0F98ADF835
:102EA00068701AA909F069FC0F99584605F0A8FE48
:102EB0006E221398CDF800A001232221FFF77EFD9A
:102EC0004FF0FF3308E000BFD44E02082C4E02083A
:102ED000BC4E02087D290008C4F8D032139984F84A
:102EE000CD52584605F08CFE5946304605F088FE16
:102EF000F023039800932A46FA232321FFF75EFD6F
:102F000010236B22099800931C217C23FFF756FDA8
:102F10004FF07F43C4F83033D4F800330999D3F825
:102F20008430A4F834530DEB0A073846984797E8E5
:102F30000700DFF868A204F54F7383E80700DAF8AA
:102F4000003004F594682BB98D4B8E4A60218E4871
:102F50001FF07AFE8D4B1B881BB98D4B894A61216E
:102F6000F5E78C4B2946186800F070FC8A4A034646
:102F70000A2140460FF0D4FD0998C4F848831AA9E5
:102F8000DFF81C82ADF86C90CDF8688009F066FA25
:102F90000999039805F034FE1223059800935422F2
:102FA0003F234A21FFF70AFDD4F84C330599D3F8A3
:102FB0008430A4F880534FF07F42C4F87C23384615
:102FC000984797E80700D4F84C3304F5627B4FF03C
:102FD00001098BE80700D3F88430059984F88593BC
:102FE0003846984797E80700DAF800308BE8070082
:102FF00004F2B44B002BA7D0644A13884B45ACD9DC
:10300000644B4946186800F021FC634A03460A21D4
:1030100058460FF085FD0598C4F894B31AA94FF0EF
:10302000050BCDF86880ADF86CB009F017FA05997A
:10303000039805F0E5FD31231A2206980093082134
:10304000EA23FFF7BBFC4FF07F41C4F8C813A4F894
:10305000CC530699384608F059FF97E8070004F565
:10306000757383E807004FF007010698ADF86C1000
:103070001AA9CDF8688009F0F1F90699039805F0CE
:10308000BFFD079898220821FFF78BFC1AA90A4672
:103090000798ADF8645019A9ADF8689009F03BFAAB
:1030A0004FF004010798A4F81814FFF70FFD04F27D
:1030B000DC434FF0FF31C4F808340398C4F81C1403
:1030C000C4F82014079905F09BFD0399304605F0DC
:1030D00097FD0898ADF868B01AA909F04EFB0F23C8
:1030E00000936C2208981021FFF768FC2946089885
:1030F00008F01DFC0899304605F082FD142329468E
:1031000000932A4643231098FFF758FC4FF07F4165
:10311000DAF80030C4F884144FF0FF31A4F8885472
:10312000C4F89054C4F8985484F88D94C4F8941456
:1031300004F59965002B3FF407AF144A1388032B5D
:103140007FF60BAF134B0321186800F07FFB124A88
:1031500003460A2128460FF0E3FC08231098C4F820
:103160009C541AA9ADF86C30CDF8688009F076F956
:103170003046109905F044FD20461DB0BDE8F08FA3
:103180009C4502089E46020819460208042B0120AD
:10319000604602080C2B0120E9460208002B0120A2
:1031A000244D0208406A7047806A704770478A88D9
:1031B0000B8810B5D20A4C88C1699BB251F8220025
:1031C00043EA0443184410BD10B50446BAB1107B5D
:1031D00068B1537BD27A1B0203F4E0631A43236A7B
:1031E00003EB82031A888A4202D193F9020010BDD0
:1031F00005D8013880B204330028F3D1F7E7002066
:10320000F5E710B52C2104461EF0E2FD204610BD66
:1032100030B58BB00446BDF860500895BDF85C50E1
:1032200007959DF8505006959DF84C5005959DF8D2
:10323000485004959DF8445003959DF840500295E0
:103240009DF83C500195BDF8385000950DF09EFD5D
:10325000064B2360159BE361169B2362199B6362F7
:103260001A9BA36220460BB030BD00BF084F020876
:1032700070477047704730B4C268446855100346C1
:1032800004EB6200D20748BF62599B6830BC48BF5C
:10329000D35818470346406830B19A681AB9D868BD
:1032A00000F0010070470120704710B5102104465E
:1032B0001EF08EFD204610BD10B54FF4C2710446BD
:1032C0001EF086FD204610BD9830884208B505D115
:1032D0000BF052FFBDE80840FFF78EBA08BD0000B2
:1032E0002DE9F04F04468DB00DF06CFF774B236055
:1032F000774B0025C4E910354FF4807304F16C0A54
:10330000A4F86430FF2304F198090AA984F8663010
:1033100050464FF6FF73C4E91255C4E91455C4E989
:103320001655E5632566A566ADF8283004F1E0087A
:1033300008F042FB484609F057FB04F594774046F5
:10334000FFF7A2FB3846FFF79FFB624BC4F828311A
:10335000614BC4F87051C4E95D34604BC4E95F351A
:10336000F0232A4604F14000009329464FF4A0734D
:103370000390FFF723FB0398261D4FF07F4B014678
:10338000C4F868B0304605F03BFC4FF002035046ED
:103390000AA9ADF8283009F0F0F9F0232A46504682
:1033A000009329464FF4A073FFF708FB50462946C7
:1033B00008F0BDFA5146304605F022FC4846A122ED
:1033C0002821FFF7EEFA0AAA012309A94846ADF819
:1033D0002830ADF8245009F09EF80B234846A4F895
:1033E000D030FFF773FB4FF0FF33C4E9353304F5FA
:1033F000BA73C4F8C0304946304605F001FC0DF1FF
:10340000100928224F214046FFF7CBFA4146484693
:10341000C4F810B1A4F8145108F078FD99E8070039
:1034200004F58E7383E80700DFF8D0A0CDF828A05C
:1034300009230AA94046ADF82C3009F00FF841469F
:10344000304605F0DDFB12236F2200936D217B23B4
:103450003846FFF7B3FAD4F82831C4F858B1D3F896
:103460008430A4F85C5139464846984799E80700EB
:1034700004F5B27383E80700194B1B682BB9194B8D
:10348000194A602119481FF0DFFB194B1B88022BDA
:1034900003D8184B144A6121F4E7174B022118682E
:1034A00000F0D4F90A23C4F870010AA93846ADF82F
:1034B0002C30CDF828A008F0D1FF3046394605F071
:1034C0009FFB20460DB0BDE8F08F00BF884F02087B
:1034D000105402082C4E0208704F0208C93200082E
:1034E000002B01209C4502089E460208194602084E
:1034F000042B0120604602080C2B0120244D0208F9
:103500007047000030B5164D2C6814F001048FB0E0
:10351000BFF35B8F21D128461EF05CFCE8B13F234E
:103520000993104B0893104B07930123CDE90543F2
:1035300004930423CDE902430A230C490093122289
:10354000CDE90B440A480A940194FFF761FE09484B
:103550001FF098FB28461EF049FC05480FB030BD0F
:103560005C1C0020C4860208D8860208D4810208A8
:10357000601C0020013500087047000030B5174D71
:103580002C6814F001048FB0BFF35B8F22D1284662
:103590001EF020FCF0B13F230993114B0893114B0F
:1035A00007930123CDE9054304930423CDE90243A6
:1035B0000F230D4900931B221223CDE90B440B4826
:1035C0000A940194FFF724FE09481FF05BFB28468C
:1035D0001EF00CFC05480FB030BD00BF8C1C002055
:1035E000C8860208DC860208D0820208901C0020EF
:1035F000793500087047000030B5164D2C6814F07E
:1036000001048FB0BFF35B8F21D128461EF0E2FB8F
:10361000E8B13F230993104B0893104B0793012304
:10362000CDE9053304930423CDE9024314230C4967
:1036300000931A22CDE90B440A480A940194FFF73B
:10364000E7FD09481FF01EFB28461EF0CFFB05488A
:103650000FB030BDBC1C0020CC860208E0860208FA
:103660004C840208C01C0020F5350008704700009B
:1036700030B5174D2C6814F001048FB0BFF35B8F89
:1036800022D128461EF0A6FBF0B13F230993114B2F
:103690000893114B07930123CDE9054304930423B9
:1036A000CDE9024328230D49009313222923CDE9B4
:1036B0000B440B480A940194FFF7AAFD09481FF038
:1036C000E1FA28461EF092FB05480FB030BD00BF5E
:1036D000EC1C0020D0860208F0860208B88502089B
:1036E000F01C00206D360008002070470020704755
:1036F0000EB403B503AB002153F8042B01930CF077
:10370000C3FD02B05DF804EB03B070470CB407B51D
:1037100004AB53F8042B01930CF0B6FD03B05DF835
:1037200004EB02B070470000436C10B5044673B35D
:10373000038F2BB9184B194AC52119481FF084FA79
:10374000C38E00EB43035B8C0BB30EF040FC238F66
:10375000012B03D8134B144ACB21EEE7E28E531C06
:103760009BB2092B194688BFA3F10A0104EB410162
:1037700040F63F10498C814209D10A2B04EB4202EA
:1037800028BF002304EB4303508C58845184204607
:10379000BDE810400EF01EBBEC460208F5460208DC
:1037A000A0470208EA470208F84702080EF0D9BA13
:1037B00010B586B002AC84E806001A460AAB059341
:1037C0000193099B00932146089B0BF057F806B024
:1037D00010BD000038B518BB124B13481C681349C4
:1037E000B4B1226822440260626822440A60A2687E
:1037F00014440F4B00221A8000F038F8054600F000
:1038000033F80C4B1C600C4B1D600C4B188007E010
:103810000B4B03600B4B0B600B4B1C68002CE8D16F
:1038200038BD00BF281D0020201D00201C1D0020C9
:10383000241D0020002B0120082B0120042B012037
:1038400024870208F4860208B8870208044B1B6824
:1038500053F82100034B1B6803EB4000704700BF87
:103860001C1D0020201D00200C20704700487047C0
:103870002C1D002010B5FFF7BFFE064C2060FFF79F
:10388000F7FE6060FFF73EFEA060FFF777FEE060A6
:1038900010BD00BF2C1D002010B5002404600C607A
:1038A00014601C6010BD704710B54FF4AE71044633
:1038B0001EF08EFA204610BD10B50446D0F858010F
:1038C00000F040FB2046BDE810400BF0D7BC0000E4
:1038D00010B50446FEF74CFF014B2360204610BD97
:1038E000BC4F0208704704387047704710B510216C
:1038F00004461EF06DFA204610BDA0F10400F5E765
:1039000000228260024A026018324260C160704741
:1039100010500208836859607047704710B5034B18
:1039200003600446FEF7BDFF204610BD3850020874
:1039300010B50446FFF7F2FF204640F21C511EF07E
:1039400047FA204610BD000010B50446FFF700F905
:103950000B4B236004F59F634FF080421A600023F5
:10396000C4F80035C4F80435C4F80835C4F80C357B
:10397000C4F81035C4F8143584F81B35204610BD42
:103980003850020830B5DDE90454069828448842CE
:103990000DDD1944A9420ADD079B2344934206DD4D
:1039A000039BD018A042D4BF0020012030BD0020CE
:1039B000FCE700000B4A10B408460B4C116843F2B8
:1039C000390304FB0133136051221B0CB3FBF2F1EA
:1039D00002FB113302685DF8044B526B553B19B280
:1039E000104700BF140000206D4EC64190F81B35F3
:1039F00083F0010380F81B35012380F81A357047E6
:103A000070B50446334EFEF74DFF04F59F63002565
:103A100004F5A0604FF080421A6004212B46324624
:103A2000A4F81A55C4F8FC54C4F89C040FF078F8B4
:103A300004F254400CF052FD274B04F5A1603246CD
:103A400004211B68C4F848030FF06AF804F54070BD
:103A50000CF044FDB4F92E2407EE902AF8EEE77A34
:103A600004F59E63C3ED007A04F2F44300221A6069
:103A700004F53570A4F8EC5484F8F95204F1C40547
:103A80000CF02CFDB4F9CA2028464FF4A071FEF7C3
:103A900088FF2946204604F5BA75FFF78BFFB4F975
:103AA0007A21284640F20D21FEF77BFF2946204669
:103AB00004F50975FFF77EFF2846B4F92A2240F283
:103AC000DA21FEF76EFF29462046BDE87040FFF779
:103AD00071BF00BFCA4802083C1D002037B5012352
:103AE00080F8EC3400F553751C4B00930446B0F895
:103AF0008034ADF804302846694608F0AFFC04F580
:103B0000A260D4F8FC34164AC4F8940304210FF0E0
:103B100007F82846134D0CF0E1FCD4F8FC142B6890
:103B2000994203DDE06B2960FFF7F4FE04F5A16024
:103B30002B680B4AC4F8480304210EF0F1FF04F58A
:103B400040700CF0CBFC012304F5357084F8F93299
:103B500003B0BDE830400CF0C1BC00BF244D0208EA
:103B6000CA4802083C1D00202DE9F04F0B68B0F94F
:103B70002E24B0F92C74B0F93084B0F93294DB699A
:103B8000B1F904A0B1F906B089B00446079208461D
:103B90000D4698470646002800F08380B0F90A30A9
:103BA0000493B0F908300393B0F90630079A5B44E8
:103BB0000293B0F904305344CDE9009339464346AB
:103BC0002046FFF7DFFE28B1204609B0BDE8F04FE0
:103BD000FFF784BFB669002E63D0B6F90A300493AC
:103BE000B6F908300393B6F906305B440293B6F990
:103BF00004305344CDE90093394643462046FFF74D
:103C0000C1FE0028E0D1B369002B4AD0B3F90A10F5
:103C10000491B3F908100391B3F9061059440291C5
:103C2000B3F904305344CDE9009339464346204666
:103C3000FFF7A8FEA8B31C4E3368AB4231D0D4F8CE
:103C4000FC240C21013292FBF1F301FB1323C4F895
:103C5000FC2404F59F6153B9D1ED007AB6EE007AE9
:103C600077EE877A2046C1ED007AFFF7BFFE91ED2F
:103C7000007A3560F1EE047AB4EEE77AF1EE10FAEC
:103C8000C8BFC1ED007A13460421084A04F5A060BC
:103C90000EF046FF04F2544009B0BDE8F04F0CF0BE
:103CA0001DBC09B0BDE8F08F18000020CA4802080A
:103CB00090F8EC342DE9F3410446C3B3B0F9323443
:103CC000C3F1F00307EE103A00F59E62D2ED007AE0
:103CD000B8EEC77AF4EEC77AF1EE10FA40F123811C
:103CE00000F2F443D3ED006A9FED906A76EE866AA7
:103CF00000F5856577EEA67AC3ED006AB4EE677AC3
:103D0000F1EE10FA48BFF0EE477AC2ED007AFDEE10
:103D1000E77AB0F92C1417EE903A28461AB2FDF75C
:103D200012FB284602B0BDE8F0410CF0D7BB804A38
:103D30008DF80730106890B11A460DF1070102F0B6
:103D4000F4FF60B99DF8073094F8ED24012B06D1FB
:103D50000AB984F8ED3404F2F443764A1A6094F810
:103D6000ED34002B00F0DF8094F81A35002B40F082
:103D7000C28094F8EC34002B40F0D58004F2F44378
:103D8000D3ED007A9FED697A04F59E6577EE877A28
:103D900095ED007AC3ED007A77EE877A0022F5EE92
:103DA000C07AF1EE10FA44BF2A601A60B4F93234D6
:103DB00058BFC5ED007A07EE103ADFED5F7AB8EE36
:103DC000C77A77EEC77A95ED007AB4EEE77AF1EE2E
:103DD00010FA04DBC5ED007A2046FFF77FFED5ED33
:103DE000007AB4F92C14FDEEE77A04F5856017EE3D
:103DF000903A05461AB2FDF7A6FA28460CF06EFB7B
:103E0000B4F9C83007EE903A04F59F68F8EEE77A07
:103E100098ED007AB4F9CC3077EEC77A04F1C40695
:103E2000FDEEE77A17EE905AEB4206D5B4F9285228
:103E300031462046CD35FFF7BDFD29B2B4F9CA2081
:103E40003046FDF780FA30460CF048FBB4F9783183
:103E500098ED007A07EE903AF8EEE77AB4F97C3103
:103E600077EEC77A04F5BA77FDEEE77A17EE905A47
:103E7000EB4206D5B4F9C85039462046CD35FFF798
:103E800099FD29B2B4F97A213846FDF75CFA384633
:103E90000CF024FBB4F9283298ED007A07EE903A42
:103EA000F8EEE77AB4F92C3277EEC77A04F50978A0
:103EB000FDEEE77A17EE905AEB4206D5B4F9785149
:103EC00041462046CD35FFF775FDB4F92A2229B2C7
:103ED0004046FDF738FA40460CF000FB31462046DC
:103EE000FFF742FE39462046FFF73EFE4146204698
:103EF000FFF73AFE17E094F81B3584F8913083F011
:103F0000010284F8BD2004F198000CF0E7FA04F1F6
:103F10006C000CF0E3FA002384F81A3594F8ED34C1
:103F2000002B7FF426AF02B0BDE8F081CDCC4C3E33
:103F30002C1A0020000080C0000070430022C0E95D
:103F4000002270477047704704387047704710B5BB
:103F5000102104461DF03CFF204610BDA0F10400D6
:103F6000F5E7000000228260024A026018324260D7
:103F7000C16070476C50020883685868704770478A
:103F800010B5034B03600446FFF773F9204610BDDC
:103F90009450020810B50446FFF7F2FF20464FF494
:103FA000C8711DF015FF204610BD000010B5044675
:103FB000FFF796F9014B2360204610BD945002088C
:103FC00010B50446FFF756F9E06BFFF7D5FF03463F
:103FD00004F5C270C4F87001044A05210EF0A0FD7A
:103FE00004F59470BDE810400CF078BACA48020895
:103FF000F02070474FF4A07070472920FDF74CBEA9
:104000002820FDF749BE08B5FDF71AFECA20FDF7C6
:1040100043FEC320FDF724FE0820FDF721FE5020BB
:10402000FDF71EFECF20FDF737FE0020FDF718FE3E
:10403000C120FDF715FE3020FDF712FEED20FDF743
:104040002BFE6420FDF70CFE0320FDF709FE122075
:10405000FDF706FE8120FDF703FEE820FDF71CFEBC
:104060008520FDF7FDFD0020FDF7FAFD7820FDF726
:10407000F7FDCB20FDF710FE3920FDF7F1FD2C20D8
:10408000FDF7EEFD0020FDF7EBFD3420FDF7E8FD28
:104090000220FDF7E5FDF720FDF7FEFD2020FDF7EE
:1040A000DFFDEA20FDF7F8FD0020FDF7D9FD002037
:1040B000FDF7D6FDB120FDF7EFFD0020FDF7D0FDA7
:1040C0001B20FDF7CDFDB620FDF7E6FD0A20FDF72C
:1040D000C7FDA220FDF7C4FDC020FDF7DDFD1020C7
:1040E000FDF7BEFDC120FDF7D7FD1020FDF7B8FD9F
:1040F000C520FDF7D1FD4520FDF7B2FD1520FDF7E8
:10410000AFFDC720FDF7C8FD9020FDF7A9FD3620C3
:10411000FDF7C2FDC820FDF7A3FDF220FDF7BCFDB1
:104120000020FDF79DFDB020FDF7B6FDC220FDF794
:1041300097FDB620FDF7B0FD0A20FDF791FDA72001
:10414000FDF78EFD2720FDF78BFD0420FDF788FD90
:104150002A20FDF7A1FD0020FDF782FD0020FDF7DC
:104160007FFD0020FDF77CFDEF20FDF779FD2B2082
:10417000FDF792FD0020FDF773FD0020FDF770FDB7
:104180000120FDF76DFD3F20FDF76AFDF620FDF7EC
:1041900083FD0120FDF764FD0020FDF761FD062091
:1041A000FDF75EFD2C20FDF777FDC820FDF7C2FD71
:1041B0002620FDF771FD0120FDF752FDE020FDF7FF
:1041C0006BFD0F20FDF74CFD2920FDF749FD242054
:1041D000FDF746FD0C20FDF743FD0E20FDF740FDE9
:1041E0000920FDF73DFD4E20FDF73AFD7820FDF753
:1041F00037FD3C20FDF734FD0920FDF731FD13208C
:10420000FDF72EFD0520FDF72BFD1720FDF728FDFE
:104210001120FDF725FD0020FDF722FDE120FDF72F
:104220003BFD0020FDF71CFD1620FDF719FD1B20AE
:10423000FDF716FD0420FDF713FD1120FDF710FD1D
:104240000720FDF70DFD3120FDF70AFD3320FDF7B6
:1042500007FD4220FDF704FD0520FDF701FD0C20C0
:10426000FDF7FEFC0A20FDF7FBFC2820FDF7F8FC1B
:104270002F20FDF7F5FC0F20FDF7F2FC1120FDF7D4
:104280000BFDC820FDF756FD2920FDF705FDBDE813
:1042900008402C20FDF700BD08B5FDF7D1FC032137
:1042A000D320FDF715FD80B208BD10B5C4B20222BF
:1042B00003212046FDF77AFC0A20FDF7BFFC2046CB
:1042C00000220321FDF772FCBDE810400220FDF73B
:1042D000B5BC38B50446E4B2FDF766FC00212046C3
:1042E000FDF77CFC012105462046FDF777FC40EAFE
:1042F000052080B238BD10B5C4B240212046FDF77C
:104300006DFC030607D54C212046FDF767FC0038FD
:1043100018BF012010BD01224B212046FDF746FCAD
:10432000204600224B21FDF741FC0020F2E773B547
:104330000423C4B20E461546D7210DEB03022046D6
:10434000FDF766FC019B1BBA1A0DC3F30B233280E9
:1043500020462B8001224B21FDF728FC00224B2117
:104360002046FDF723FC02B070BD000010B50A4ADC
:104370001378984204460DD0517888420AD00BB188
:1043800041B90123D454FDF70FFC2046BDE810408D
:10439000FFF78BBF10BD00BF401D002010B5C4B299
:1043A00009212046FDF71AFC40F00102D2B2204656
:1043B0000921BDE81040FDF7F9BB10B5C4B20921D1
:1043C0002046FDF70BFC092100F0FE022046BDE867
:1043D0001040FDF7EBBB38B5C4B20D4620460A21AC
:1043E000FDF7FCFB40EA0502D2B220460A21BDE8F7
:1043F0003840FDF7DBBB10B50446FDF7D6FB204681
:104400001F21FFF7E8FF2046BDE81040FFF7C6BFB9
:1044100038B5C4B20D4620460A21FDF7DFFB20EA7D
:104420000502D2B220460A21BDE83840FDF7BEBBE6
:1044300010B50446FFF7C1FF20461F21BDE810401C
:10444000FFF7E6BF10B5C0B20C460B21FDF7C6FB67
:10445000204010BD1F21FFF7F5BF0A46C0B20B2157
:10446000FDF7A4BB1F21FFF7F8BF38B5C4B20D4656
:1044700020461721FDF7B2FB20EA0502D2B2204602
:104480001721BDE83840FDF791BB70B5C4B20646B0
:1044900004212046FDF7A2FB042100F0FB020546A3
:1044A0002046FDF783FB3046F021FFF7DEFF05F0E5
:1044B000F80220460421FDF779FB492220212046FD
:1044C000FDF774FB0220FDF7B9FB204601222121F4
:1044D000FDF76CFB20469A224121FDF767FB204641
:1044E00001224A21FDF762FB204601224B21FDF704
:1044F0005DFB204600224B21FDF758FB20460122A0
:104500005621FDF753FB204601225821FDF74EFBB3
:10451000204601224021FDF749FB2046FF220B21C6
:10452000FDF744FBBDE870400220FDF787BB0000AB
:10453000054BD3F8882042F47002C3F888204FF06E
:1045400000629A60704700BF00ED00E008B50B4BB9
:104550001A6842F400721A601A6842F480621A60A3
:104560001A6842F480721A60032000F02FF80020CD
:10457000FDF722FEFDF7ECFB002008BD003C0240E9
:10458000034A044B11681B780B441360704700BF4B
:10459000441D002080000020014B1868704700BFB8
:1045A000441D002038B50446FFF7F6FF631C1CBF0E
:1045B000054B1B78054618BFE418FFF7EDFF431BBA
:1045C000A342FAD338BD00BF800000200749CA6863
:1045D00022F4E0620302120403F4E063120C1343BA
:1045E00043F0BF6343F40033CB60704700ED00E05D
:1045F000164B30B5DC68C4F30224C4F10703251D53
:10460000042B28BF0423062D4FF0FF358CBF033C3D
:10461000002405FA03F321EA0303A54022EA050278
:10462000A340002843EA0203ACBF00F16040084AFF
:104630004FEA0313B8BF00F00F00DBB2AABF00F5CA
:104640006140135480F8003330BD00BF00ED00E03E
:1046500014ED00E0002807DB044A4109012300F0C3
:104660001F00834042F82130704700BF00E100E0A6
:1046700010B5044650B1437903F0FF0213B902713B
:10468000FDF786FB01236371002010BD0120FCE7CC
:1046900010B5044620B390F8393003F0FF021BB97F
:1046A00080F83820FDF78CFB022384F8393023682A
:1046B00061681A6822F440320A431A605A6BA16892
:1046C00022F007020A435A631A6CE1686FF30D0285
:1046D0000A431A6400200123E06384F8393010BDD6
:1046E0000120FCE770477047036870B55E681D687D
:1046F000F207044614D5E90512D51A6822F480722F
:104700001A60C26B42F00102C26301229A60042364
:1047100080F83930002380F83830436903B1984776
:10472000B20616D5AB0414D523681A6822F40052D9
:104730001A6020229A60E36B43F00203E3630423D0
:1047400084F83930002384F8383063690BB120468F
:104750009847300716D5290514D523681A6822F41E
:1047600000621A6008229A60E36B43F00403E3637B
:10477000042384F83930002384F8383063690BB19E
:104780002046984772070BD56B0509D523681A6830
:1047900022F480621A6004229A602046FFF7A2FF8A
:1047A000B00714D5A90512D523681A6822F400723F
:1047B0001A6002229A60E36BE363012384F83930C4
:1047C000002384F8383023690BB120469847F2065D
:1047D00013D5EB0411D523681A6822F480521A60AD
:1047E00010229A60E36BE363012384F839300023DD
:1047F00084F838302046FFF776FF70BDF0B590F8AA
:104800003820012A03464FF002002BD0012283F802
:10481000382083F8390003EB0112D2E90740556ACA
:10482000174F44EA0040093C012C9CBF05F07F4231
:1048300010434FEA01161A6888BF40EA056091B933
:10484000516A394001435162012C9969916103D841
:10485000596A21F07F4191620122002083F83920BA
:1048600083F83800F0BDD16939400143D16199190D
:10487000012C896911619CBF25F07F451562EBE72A
:10488000F0FFFC002DE9F74FDFF8BC916C4A0023E4
:104890000D6801249C4004EA0506AC4340F0B78053
:1048A0004D68032705F003044FEA430807FA08FCA4
:1048B000671E012F6FEA0C0C34D8876807EA0C0ECC
:1048C000CF6807FA08F747EA0E078760476827EAC4
:1048D000060EC5F300179F4047EA0E074760C768FA
:1048E00007EA0C0E8F6807FA08F747EA0E07022C52
:1048F000C76019D14FEAD30A00EB8A0A03F0070B0D
:10490000DAF820704FEA8B0B4FF00F0E0EFA0BFE09
:1049100027EA0E0E0F6907FA0BF747EA0E07CAF8E7
:10492000207001E0032CDAD1076804FA08F407EAE2
:104930000C073C4315F4403F046068D00024019408
:10494000D9F8444044F48044C9F84440D9F844407C
:1049500023F0030707F1804704F4804407F59C37F0
:10496000019403F0030C019CD7F808E04FEA8C0C8B
:104970000F2404FA0CF42EEA040E324CA0424DD05F
:1049800004F58064A0424BD004F58064A04249D075
:1049900004F58064A04247D004F58064A04245D06D
:1049A00004F58064A04243D004F58064A04241D065
:1049B00004F58064A0423FD004F58064A0423DD05D
:1049C00004F58064A04214BF0A24092404FA0CF4FC
:1049D00044EA0E04BC609468F74315F4801F0CBFD2
:1049E0003C4034439460D46815F4001F0CBF3C4035
:1049F0003443D460546815F4003F0CBF3C4034434A
:104A000054601468ED0354BF3C40344314600133D8
:104A1000102B7FF43DAF03B0BDE8F08F0024D5E745
:104A20000124D3E70224D1E70324CFE70424CDE710
:104A30000524CBE70624C9E70724C7E70824C5E710
:104A4000003C014000000240003802400369194266
:104A500014BF0120002070470AB18161704709042A
:104A6000FBE7436901EA030221EA030141EA02414B
:104A70008161704770470000044A5169014208B5DE
:104A800002D05061FFF7F6FF08BD00BF003C0140B7
:104A900001684B6913F480634FF0000210D06FF48B
:104AA00080634B612023026380F83D3080F83E2014
:104AB000036C80F83C2043F004030364012070473A
:104AC000184670472DE9F84606460F4691461D46A2
:104AD0004FEA114A3368BAF1010F0CBF5C699C6957
:104AE00027EA0404A4B2B4FA84F46409A14501D00D
:104AF000002025E06A1CEED0FFF74EFD089BC01A8F
:104B0000A84201D8002DE5D13368BAF1010F0CBFDE
:104B10005B699B6927EA03039BB2B3FA83F35B09E2
:104B20009945D7D100232022336386F83D2086F8AB
:104B30003E30326C86F83C3042F020023264012074
:104B4000BDE8F8862DE9F04104460F461646984622
:104B50002568686927EA000080B2C0B16B695A0510
:104B600017D52B6843F400732B606FF480636B617F
:104B700020220023236384F83D2084F83E30236CF8
:104B800043F004032364002384F83C300120BDE893
:104B9000F081731CDDD0FFF7FFFCA0EB0800B042F2
:104BA00001D8002ED4D123685A6927EA020292B2B2
:104BB000002ACDD000232022236384F83D2084F8EE
:104BC0003E30236C1343DDE770B504460D461646B0
:104BD00023685B691B0601D500201EE02046FFF715
:104BE00057FFC8B96A1CF3D0FFF7D6FC801BA84258
:104BF00001D8002DECD123685B6913F08003E7D165
:104C00002022236384F83D2084F83E30226C84F80F
:104C10003C3042F020022264012070BD2DE9F043B7
:104C20001546026885B0DDE90C789946136843F4AF
:104C3000807313600E463B46CDF8008000224FF093
:104C400001110446FFF73EFF236838B11B68DB05FE
:104C500002D54FF400732364032620E006F0FE061D
:104C60001E611A4943463A462046FFF76BFFA8B932
:104C7000236803905A6903929B690393424639461D
:104C80002046039BFFF7A0FF064660B1236C042B70
:104C900001BF2268136843F4007313600126304695
:104CA00005B0BDE8F083B9F1010F236802D1EDB280
:104CB0001D61F4E72A0A1A61394642462046FFF789
:104CC00083FF0028E2D12368F1E700BF0200010062
:104CD0002DE9FF479A46036815461A6842F4806238
:104CE0001A601A68DDE90C7842F480721A600E4688
:104CF0003B46CDF8008000224FF001110446FFF73B
:104D0000E1FE236838B11B68DB0544BF4FF4007334
:104D10002364032021E05FFA86F906F0FE061E6197
:104D20002B4943463A462046FFF70CFFA0B92368BB
:104D300003905A6903929B69039342463946204681
:104D4000039BFFF741FF58B1236C042B01BF22687E
:104D5000136843F400731360012004B0BDE8F087CA
:104D6000BAF1010F23681AD1EDB242461D613946EE
:104D70002046FFF729FF02460028E5D121680B688D
:104D800043F480730B602046CDF800803B464FF023
:104D90000111FFF797FE226860B11368B4E72A0A91
:104DA0001A61394642462046FFF70EFF0028CBD154
:104DB0002368D9E749F001031361054943463A46A0
:104DC0002046FFF7BFFE003818BF0120C5E700BF2F
:104DD0000200010070B504460D46164623685B6963
:104DE0005B0701D500201EE02046FFF751FEC8B941
:104DF0006A1CF3D0FFF7D0FB801BA84201D8002D1E
:104E0000ECD123685B6913F00403E7D1202223630C
:104E100084F83D2084F83E30226C84F83C3042F027
:104E200020022264012070BD70B504460D4616466E
:104E300021684B6913F0400301D0002011E04A695A
:104E4000D2060FD56FF010024A612022236384F846
:104E50003D2084F83E30236C2364002384F83C30EA
:104E6000012070BDFFF798FB801BA84201D8002DE0
:104E7000DED123685B6913F04003D9D1202223637C
:104E800084F83D2084F83E30236C1343E4E70000AF
:104E900070B5044608B9012070BD90F83D3003F0AC
:104EA000FF021BB980F83C20FCF7ACFF242384F8F8
:104EB0003D3023681A6822F001021A601A6842F431
:104EC00000421A601A6822F400421A6000F08AFE5A
:104ED0003F4B65689D4294BF3E4B3F4B98428CBF11
:104EE00000230123002BD6D12268394E51683B4B59
:104EF000B0FBF3F321F03F011943B542516088BF85
:104F00004FF49676116A88BF734321F03F0184BF46
:104F10004FF47A76B3FBF6F301330B431362D16996
:104F2000431E2B4821F44F41854221F0FF0132D826
:104F30006D0040F6FC70B3FBF5F30133034242D041
:104F4000C3F30B031943D161D4E90730116803435C
:104F500021F0C0010B4313609168D4E9030321F4ED
:104F60000341034321F0FF010B439360D4E9053073
:104F7000D168034321F0FF010B43D360136843F072
:104F80000103136000202023206484F83D30206357
:104F900084F83E0080E7A06850B905EB4505B3FBF7
:104FA000F5F30133C3F30B037BB143F40043C9E7CB
:104FB00019206843B3FBF0F30133C3F30B0323B1B0
:104FC00043F44043BEE70423BCE70123BAE700BF34
:104FD000A08601007F841E00FF083D0040420F00B4
:104FE0002DE9F743044699460C9E0F469046FFF77D
:104FF000D3FA94F83D30202B054603D0022003B0AD
:10500000BDE8F08300903C49192301222046FFF7B8
:1050100059FD0028F2D194F83C30012BEED02068E5
:10502000012384F83C300368D9075EBF036843F06E
:1050300001030360036823F400630360212384F801
:105040003D30402384F83E30002323640A9B636292
:10505000BDF82C306385638D2385284BE36242467F
:10506000CDE900654B4639462046FFF7D7FD0028BD
:105070002AD00120C3E7FFF7A7FD40B1236C042B22
:1050800001BF2268136843F400731360F1E7636A99
:1050900027681A4612F8011B39616262628D218D00
:1050A000013A92B262857A69481E80B25207208521
:1050B0000AD548B15A783A6102336362638D013B85
:1050C00002399BB221856385238D2A4631462046CD
:1050D000002BD0D1FFF77EFE0028CFD122681368C5
:1050E00043F400731360202384F83D3084F83C00BF
:1050F00084F83E0083E700BF020010000000FFFFBD
:105100002DE9F043044687B09946109F0D4690461E
:10511000FFF742FA94F83D30202B064604D00225D2
:10512000284607B0BDE8F08300907A491923012290
:105130002046FFF7C7FC0028F1D194F83C30012B42
:10514000EDD02068012384F83C300368DB075EBFA4
:10515000036843F001030360036823F40063036002
:10516000222384F83D30402384F83E30002323641A
:105170000E9B6362BDF83C306385638D2385664B6F
:10518000E3622946CDE900764B4642462046FFF7CA
:105190009FFD054608B10125C2E7228D2368B2B9FB
:1051A00002905A6902929A690292029A1A6842F42B
:1051B00000721A60DFF86481238D002B2CD120222D
:1051C00084F83D2084F83C3084F83E30A8E7012A7A
:1051D0000AD11A6822F480621A6003905A69039215
:1051E0009A690392039AE1E7022A0ED11A6822F41F
:1051F00080621A601A6842F400621A6004905A6968
:1052000004929B690493049BD4E705905A69059224
:105210009B690593059BCDE7032B56D8012B15D130
:10522000324639462046FFF7FFFD0028B3D12368F8
:105230001A69636A1A70636A01336362238D013BE2
:105240002385638D013B9BB26385B5E7022B0096F6
:105250003B464FF000024146204619D1FFF732FC91
:10526000002898D123681A6842F400721A601A69FB
:10527000636A1A70626A531C6362238D013B238543
:10528000638D013B9BB2638523681B695370D2E732
:10529000FFF718FC024600287FF47DAF23681968E9
:1052A00021F4806119601969636A1970636A0133B6
:1052B0006362238D013B2385638D013B9BB2638534
:1052C000414600963B462046C8E7324639462046CE
:1052D000FFF7AAFD00287FF45EAF23681A69636AAE
:1052E0001A70628D616A013A92B24B1C6285226823
:1052F0006362238D5069013B9BB2400723857FF594
:105300005BAF032B02BF136823F480631360136940
:105310004B7090E7020010000000FFFF0400010046
:1053200010B590F83D30202BDCB216D1242380F844
:105330003D3003681A6822F001021A605A6A22F0AE
:1053400010025A625A6A114359621A6842F0010205
:105350001A6080F83D40002010BD0220FCE730B507
:1053600090F83D30202BDCB216D10268242380F85F
:105370003D30136823F001031360556A4FF6F07354
:105380002B400B439BB25362136843F0010313603D
:1053900080F83D40002030BD0220FCE70068D201CB
:1053A00084328318F0B5C7685D684C680E6805F4F0
:1053B00070455D60C56806F1010CC5F30B45C7F388
:1053C0000B472744654445EA07455D60C768CD68DB
:1053D000C7F30A072F449D6805F470459D60D0F817
:1053E0000CC08D68CCF30A0C0135654445EA0745CD
:1053F0009D601D69D1F810C08F6925F007051D61FA
:10540000C3F810C091F8305045EA076591F8317043
:1054100045EA072591F8327045EA07459D615D69C7
:1054200025F0FF055D614D695D61DD6925F4E0658D
:1054300025F00705DD61D1E907573D43DD61BCF18A
:10544000070F4D6A9D629CBF0D4D15F80C70DD6A0B
:1054500005F0E025DD6288BF01278D6AC96AA41BBB
:105460007C437D43033444EA0544DC621C6B6FF3E8
:105470000A041C631963835843F001038350F0BD91
:10548000D850020838B5044600284ED090F8A13014
:1054900003F0FF021BB980F8A020FCF70FFD0223E8
:1054A00084F8A13023689A6922F070429A61D4E9A5
:1054B00001200243E06899690243206902430A43DC
:1054C0009A61D4E9051242EA01429A60D4E90712CE
:1054D00042EA0142DA60D4E9091242EA01421A6161
:1054E000D4E90B1242EA01425A61DA6A94F83500B3
:1054F00094F8361002F07F42DA62DD6A94F83420C4
:105500002A4342EA002242EA0142DA625A6B42F03E
:1055100006025A639A6942F001029A61002001234F
:10552000C4F8A40084F8A13038BD0120FCE770471E
:105530007047036870B59E6B5D6B7207044614D5A7
:10554000690712D55A6B22F004025A630422DA6307
:10555000D0F8A43043F00103C0F8A430002380F851
:10556000A12080F8A030FFF7E2FFB20716D5AB0705
:1055700014D523685A6B22F002025A630222DA63BE
:10558000D4F8A4301343C4F8A430042384F8A13021
:10559000002384F8A0302046FFF7C9FFF00710D59C
:1055A000E9070ED523685A6B22F001025A630122E3
:1055B000DA63002384F8A12084F8A0302046FCF7A9
:1055C0002BF8320711D52B070FD523685A6B22F021
:1055D00008025A630822DA63012384F8A130002309
:1055E00084F8A0302046FFF7A3FF70BD2DE9F041FD
:1055F00090F8A030012B06460F4694464FF002006B
:105600001FD04FF0010886F8A08086F8A10034244E
:105610000D4604FB02640FCD38340FC40FCD0FC408
:105620000FCD0FC42B682360304662463946FFF722
:10563000B5FE33680020C3F8248086F8A18086F880
:10564000A000BDE8F081000090F8A020012A0346E8
:105650004FF0020012D01A6883F8A100506B20F0BE
:105660000100506306480164516B41F00101516330
:105670000020012283F8A12083F8A000704700BF1A
:105680000068014037B500230193184B184D1A6C80
:1056900042F080521A641B6C03F080530193019B0B
:1056A000144B01221A64FEF777FF04466B68DA0395
:1056B0000BD5104B0E4D01225A64FEF76DFF0446C8
:1056C0006B689B030AD5002006E0FEF765FF001B10
:1056D000B0F57A7FEAD9032003B030BDFEF75CFF56
:1056E000001BB0F57A7FEBD9F5E700BF0038024028
:1056F0000070004000000E422DE9F341044640B323
:105700000368DE0710D423689D075BD4236819075C
:1057100000F19D8023685A0700F1BD80A369002B2A
:1057200040F0248100202CE08D4B9A6802F00C029E
:10573000042A07D09A6802F00C02082A0BD15B6891
:10574000590208D5864B1B689A03DCD56368002B89
:10575000D9D1012015E06368814DB3F5803F13D1A5
:105760002B6843F480332B60FEF716FF7C4E054612
:1057700033689B03C7D4FEF70FFF401B6428F7D99B
:10578000032002B0BDE8F081B3F5A02F04D12B684F
:1057900043F480232B60E3E72A6822F480322A60F6
:1057A0002A6822F480222A60002BDDD1FEF7F4FE65
:1057B00006462B689F03A6D5FEF7EEFE801B6428E5
:1057C000F7D9DDE7664B9A6812F00C0F07D09A689C
:1057D00002F00C02082A11D15B685D020ED4604A07
:1057E0001368990702D5E368012BB2D113682169C8
:1057F00023F0F80343EAC103136087E7E268594BDB
:10580000B2B101221A60FEF7C7FE554D06462B685D
:105810009B0707D52B68226923F0F80343EAC203EC
:105820002B6073E7FEF7B8FE801B0228EFD9A7E7CD
:105830001A60FEF7B1FE4A4E054633689F077FF5B2
:1058400065AFFEF7A9FE401B0228F6D998E762690A
:10585000444B82B10122C3F8802EFEF79DFE404EDC
:105860000546736F9B073FF555AFFEF795FE401B4E
:105870000228F6D984E7C3F8802EFEF78DFE384E55
:105880000546736F9F077FF545AFFEF785FE401B0A
:105890000228F6D974E7324B1A6C12F0805228D1E4
:1058A00001921A6C42F080521A641B6C03F0805310
:1058B0000193019B01272C4D2B68D8051BD5A368AC
:1058C000274D012B27D12B6F43F001032B67FEF7E8
:1058D00063FE234E054641F28838336F9A0739D567
:1058E000002F3FF41BAF1E4A136C23F08053136448
:1058F00014E70027DFE72B6843F480732B60FEF783
:105900004BFE06462B68D905D9D4FEF745FE801B11
:105910000228F7D934E7052B04D12B6F43F0040399
:105920002B67D0E72A6F22F001022A672A6F22F044
:1059300004022A67002BCAD1FEF72EFE41F28838F6
:1059400006462B6F9B07CBD5FEF726FE801B4045F6
:10595000F7D915E7FEF720FE401B4045BDD90FE7FC
:10596000003802400000474200700040374DAA68EE
:1059700002F00C02082A3ED0022B354B4FF00002F9
:105980001A662BD1FEF708FE06462B6899011FD434
:10599000D4E907321343626A43EA8213E26A43EAB4
:1059A0000263A26A5208013A43EA02436B60284B41
:1059B000264D01221A66FEF7EFFD04462B689A0178
:1059C0003FF5B0AEFEF7E8FD001B0228F6D9D7E69A
:1059D000FEF7E2FD801B0228D7D9D1E6FEF7DCFDF9
:1059E00004462B689B017FF59DAEFEF7D5FD001B9D
:1059F0000228F6D9C4E6012B3FF4ABAE6B68E2692E
:105A000003F4800191427FF4A4AE216A03F03F02C7
:105A10008A427FF49EAE616A47F6C0721A40B2EBCA
:105A2000811F7FF496AEA26A520803F44031013A16
:105A3000B1EB024F7FF48DAEE26A03F07063B3EB1B
:105A4000026F14BF012000209BE600BF0038024017
:105A500000004742134908B58B6803F00C03042B80
:105A60001CD0082B1CD14A684B68496813F480038A
:105A700014BF0D480D48C1F3881118BF002302F070
:105A80003F02A1FB0001FAF753FC064B5B68C3F32E
:105A9000014301335B00B0FBF3F008BD0248FCE7B3
:105AA0000248FAE70038024000127A000024F400AD
:105AB0002DE9F0410D46044610B90120BDE8F08102
:105AC000434B1A6802F00F028A4228D321688F07DD
:105AD0002DD4C80740D43E4B1A6802F00F02AA42E8
